S01700004763634170706C69636174696F6E322E737265635A
S11300000C9431000C944E000C944E000C944E0051
S11300100C944E000C944E000C944E000C944E0024
S11300200C944E000C944E000C944E000C944E0014
S11300300C944E000C944E000C944E000C944E0004
S11300400C944E000C944E000C944E000C944E00F4
S11300500C944E0065046B04710476047C048304E0
S1130060830411241FBECFE5D8E0DEBFCDBF11E06D
S1130070A0E6B0E0EEECFAE002C005900D92A63ADC
S1130080B107D9F721E0A6EAB1E001C01D92AD3C69
S1130090B207E1F70E94FD010C9465050C94000081
S11300A0EFE0F0E0E81BF90B81E090E002C0880F7C
S11300B0991FEA95E2F7442371F0262B88BB92BB83
S11300C02BBBE9EFF0E03197F1F700C00000969503
S11300D08795415099F78FEF8BBB0895EFE0F0E0DF
S11300E0DF01A81BB90BE1E0F0E002C0EE0FFF1F37
S11300F0AA95E2F7442379F09F2FE8BB92BB862FA1
S1130100822B8BBBA9EFB0E01197F1F700C0000080
S11301106F5F415091F78FEF8BBB089520E1829F71
S1130120C0011124FC01EB59FF4F80E02FEF9081B7
S113013098BB9181329692BB6115710519F4982F81
S1130140906603C098E0980F90669BBBA9EFB0E05F
S11301501197F1F700C000002BBB8F5F883039F78F
S11301600895FC0190E02FEF808188BB8181329655
S113017082BB862F892B8BBBA9EFB0E01197F1F7D7
S113018000C000002BBB9F5F903171F708959C0164
S113019090916400913009F044C06630710584F098
S11301A028303105E4F48091A6019091A7010596C9
S11301B09093A7018093A6016B3071053CF40FC0A6
S11301C06B30710564F0283031054CF48091A60140
S11301D09091A70105969093A7018093A6012930D9
S11301E031050CF452C08091A6019091A7010596A7
S11301F09093A7018093A60165307105F4F10596EB
S11302009093A7018093A6016B307105F4F180915E
S1130210A6019091A70105969093A7018093A6014A
S11302200895911132C025303105ECF08091A6017A
S11302309091A70105969093A7018093A601693038
S11302407105FCF005969093A7018093A6016B308D
S113025071054CF08091A6019091A70105969093A9
S1130260A7018093A6018091A6019091A7014996C8
S11302709093A7018093A60108956B3071053CF615
S113028008956B30710534F7EECF0895CF93DF9363
S1130290209164002130B9F02091B00130E026179C
S11302A0370709F073C02091AF0130E0821793073C
S11302B00CF46CC04091B101240F311D82179307D7
S11302C00CF064C045C0EFEAF1E0A1E0B0E040E02A
S11302D050E004C04F5F5F4F119633964230510592
S11302E009F44DC04930510509F441C0218130E081
S11302F062177307B9F4208130E08217930794F0F2
S1130300C2812C0F311D8217930764F424C021810C
S113031030E06217730734F0C2812C0F311D62176D
S11303207307E4F0AA30B105ACF281E090E036C086
S11303302091B20130E0821793079CF04091B40100
S1130340240F311D821793077CF081E090E026C0D2
S113035080E090E023C080E090E020C080E090E066
S11303601DC081E090E01AC080E090E017C02081B9
S113037030E08217930759F281E090E00FC02081AA
S113038030E08217930709F0A5CFC1CF2091B301C4
S113039030E06217730761F281E090E0DF91CF9162
S11303A0089520916400FC0130E1239FE00DF11DCC
S11303B01124EE0FFF1FEB5DFE4F2081318140972A
S11303C0B0F460317105B0F44FE050E0461B570BB8
S11303D081E090E002C0880F991F4A95E2F7282334
S11303E0392381E090E0232B39F080E0089580E008
S11303F090E0089580E090E008958FEF8ABB87BB7A
S113040014BA81BB80E884BF84BF44244394C12CC4
S1130410D12C00E010E00F2EFAE09F2EF02D0F2ECD
S1130420F4E12F2E312CF02D0F2EF4E67F2EF02D3B
S1130430CFEAD1E06894882482F80F2EF5E05F2E8D
S1130440F02D0F2EFBEAAF2EF1E0BF2EF02D0F5F43
S11304501F4FE0906100E11002C09092AA01F09059
S1130460630083EF8F0D823008F0B8C28091620080
S113047081110FC080916400813009F0DFC21092B5
S113048064008093630010926200A8C29092AA0153
S11304905FC28091AA01811158C2C601B1010E94B4
S11304A02805892B09F09CC063B260FE9AC2F5014D
S11304B0808181111DC0C0906200D12C8F2D90E0ED
S11304C0B60101960E94D101892B69F081E08F0D5C
S11304D080936300B60190E00E944601892B19F4D1
S11304E0EA94E092610081E0F5018083C12CD12C73
S11304F061FE7AC2F5018181811121C0E090620020
S1130500F12CD09063008D2D90E0B70101970E94EB
S1130510D101892B79F08FEF8D0D80936300B701A2
S113052090E00E944601892B29F48091610081505A
S11305308093610081E0F5018183C12CD12C66FE9A
S113054056C2F5018281811122C0D0906200E090F0
S11305506300F12C6D2D70E06F5F7F4FC7010E9427
S1130560D101892B79F0D394D09262006D2D70E083
S1130570C7010E944601892B29F4809161008150B2
S11305808093610081E0F5018283C12CD12C662027
S11305900CF030C2F5018381811122C0D090620039
S11305A0E0906300F12C6D2D70E061507109C7017A
S11305B00E94D101892B79F0DA94D09262006D2DDA
S11305C070E0C7010E944601892B29F480916100E3
S11305D081508093610081E0F5018383C12CD12C8B
S11305E0FFEFCF1ADF0A8091640020E2829FC001EE
S11305F0112460E58B599E4F0E94B1006091620006
S113060070E08091630020E641E090E00E94500099
S113061020E64091610066E070E080E090E00E9496
S11306206E0020E54091610066E070E080E090E0BB
S11306300E946E0098013695279536952795ABE76D
S1130640B4E10E9442057C01F694E7947E9CC001CB
S11306507F9C900D11247801E81AF90A99F46091AD
S1130660620070E08091630090E00E944601892B53
S113067049F4809161008150809361001092A90136
S11306801092A80180916400813009F000C180912A
S11306906000882309F4B1C1109260008E868B86B5
S11306A08D828A8281E08D8F8A8F8F8B8C8B898B50
S11306B082E088875982588A9C829B8A88E08E834C
S11306C08D8B9A86998E8D868C8E9801369527957A
S11306D036952795ABE7B4E10E9442059695879538
S11306E082309105F1F028F4009751F0019789F0D8
S11306F0ABC18430910541F1F0F0059771F1A4C1CB
S113070081E0888383E08B839F829986EBE0EC878A
S11307102BC082E088838B83FBE0FF83F9879C8670
S113072023C083E0888381E08B838CE08F83998668
S113073029E02C8719C0888282E08B838DE08F8327
S113074089E089879C8610C083E088838B838CE052
S11307508F839986EBE0EC8707C082E088838B82E5
S1130760FBE0FF83F9879C86EF2809F03FC002C0B5
S113077000E010E08889813039F489818150888BC8
S113078088818E5F8F8702C08150888B8B898F30E0
S113079039F48C818F5F8B8B8B818E5F8A8B02C047
S11307A08F5F8B8B8D89813039F48E8181508D8B55
S11307B08F818E5F8E8B02C081508D8B898D8F309F
S11307C039F48A858F5F898F89858E5F888F02C00F
S11307D08F5F898F8C8D813039F48D8581508C8F1A
S11307E08C858E5F8B8F02C081508C8F688970E0FE
S11307F08F8520E5498990E00E9450006B8970E064
S11308008A8920E5498990E00E9450006E8970E051
S11308108D8920E5498990E00E945000698D70E03F
S1130820888D20E5498990E00E9450006C8D70E02D
S11308308B8D20E5498990E00E945000698170E029
S1130840888120E54A8190E00E9450006C8170E02C
S11308508B8120E54D8190E00E9450006F8170E013
S11308608E8120E5488590E00E946E006A8570E0E4
S1130870898520E54B8590E00E9450006D8570E0ED
S11308808C8520E54E8590E00E945000E0CD8111DA
S1130890DECD442039F08D828A82588686E08E83AC
S11308A059829C8298013695279536952795ABE712
S11308B0B4E10E944205969587958730910548F5E5
S11308C0FC01E65DFF4F0C943C0598822BE02B83E2
S11308D087E08F8320C0EBE0E8839B82F8E0FF830E
S11308E01AC0988229E02B832F8315C089E088835E
S11308F0E8E0EB839F820FC0F8E0F88329E02B83C4
S11309008BE08F8308C0E8E0E8839B82F9E0FF83F3
S113091002C000E010E0698170E0888120E54A812E
S113092090E00E9450006C8170E08B8120E54D8145
S113093090E00E9450006F8170E08E8120E5488530
S113094090E00E946E00412C82CD8A3009F07FCD68
S11309509801369527953695279536952795ABE7D3
S1130960B4E10E94420596958795009719F0019786
S113097039F00CC060E585E091E00E94B10008C048
S113098060E685E091E00E94B10002C000E010E062
S11309901092A7011092A6016091620070E080910C
S11309A0630090E00E94C7008091A6019091A70186
S11309B06AE070E00E942805862F60E070E00E94E3
S11309C08E008091A6019091A7016AE070E00E94D8
S11309D0280561E070E00E948E0039CDF09063003C
S11309E058CDF501108284CDF5011182A8CDF50111
S11309F01282CDCDF5011382F3CD9801369527955A
S1130A0036952795ABE7B4E10E9442059695879504
S1130A108230910509F485CE38F4009709F470CE3C
S1130A20019709F476CEA4CE8430910509F48CCED6
S1130A3008F481CE059709F490CE9ACE8091640093
S1130A40882309F423CD25CD888900E010E09CCECD
S1130A5097FB072E16F4009407D077FD09D00E9467
S1130A60510507FC05D03EF4909581959F4F08955C
S1130A70709561957F4F0895EE0FFF1F0590F491D7
S1130A80E02D0994A29FB001B39FC001A39F700DF4
S1130A90811D1124911DB29F700D811D1124911D82
S1130AA00895AA1BBB1B51E107C0AA1FBB1FA617B1
S1130AB0B70710F0A61BB70B881F991F5A95A9F703
S1110AC080959095BC01CD010895F894FFCF68
S1130ACE01030D0E0100003E007F00490051007F1E
S1130ADE003E0000000000010011007F007F0001B5
S1130AEE0001000000000023006700450049007962
S1130AFE0031000000000022006300490049007F1D
S1130B0E003600000000000C00140024007F007F5B
S1130B1E0004000000000072007300510051005FD9
S1130B2E004E00000000003E007F00490049006FA7
S1130B3E002600000000006000600047005F00789F
S1130B4E0060000000000036007F00490049007F6D
S1130B5E0036000000000032007B00490049007F8F
S1130B6E003E00000000FF008900890081000000A3
S1130B7EFF004000200010000800FF000000FF00EE
S1130B8E810042003C7FFC010001000180018001D4
S1130B9E8081FF0180018001810181018101810138
S1130BAE010101FFFF7FFC010001000180018001B2
S1130BBE8001800180C1FF018001800180018001DC
S1130BCE000100FFFFF99F0182018201820182016F
S1130BDE8201027F020102018001800180018001F5
S1130BEE800180FFFFF99F818081808180818081D7
S1130BFE808100810081008180018001800180015B
S1090C0E800180FFFF00DD
S9030000FC
