S01000004779726F546573742E73726563D3
S11300000C942A000C9447000C9447000C9447006D
S11300100C9447000C9447000C9447000C94470040
S11300200C9447000C9447000C9447000C9441092D
S11300300C9447000C9447000C9447000C94470020
S11300400C9447000C9447000C9447000C94470010
S11300500C94470011241FBECFE5D8E0DEBFCDBF0E
S113006010E0A0E6B0E0E2E7FEE102C005900D92E8
S1130070A43BB107D9F720E0A4EBB0E001C01D9286
S1130080A83FB207E1F70E9451010C94370F0C947A
S11300900000CF93C82F8A3019F48DE00E944900E4
S11300A05D9BFECFCCB9CF9108955F9BFECF8CB101
S11300B0089510BC8CE089B9599A86E880BD88E11E
S11300C08AB9089580319105C4F460317105BCF496
S11300D0880F991FFC01E05AFF4F80819181892B81
S11300E081F021E030E002C0220F331F6A95E2F76D
S11300F081E0232B39F480E0089580E0089580E0C6
S1130100089580E00895EF92FF920F931F93CF9389
S1130110DF930F2EF0ECEF2EF0E0FF2EF02D02EC2B
S113012010E024EC30E046EC50E068EC70E08AEC3F
S113013090E00E9404032091CA003091CB00332345
S113014014F42150384F832F859585958595932FE9
S1130150990F990B9093BB008093BA002091C8002B
S11301603091C900332314F42150384FC32FC5955F
S1130170C595C595D32FDD0FDD0BD093B900C09382
S1130180B8000091BE001091BF008017910741F4A0
S11301908091BC009091BD00C817D907E1F57AC0E1
S11301A008171907DCF498012F5F3F4F3093BF0005
S11301B02093BE0088E090E04091BC005091BD00C7
S11301C0BC01641B750B821B930B0E94620081119E
S11301D022C01093BF000093BE001DC0801791077A
S11301E0D4F49801215031093093BF002093BE000C
S11301F088E090E04091BC005091BD00BC01641BBC
S1130200750B821B930B0E946200811104C0109332
S1130210BF000093BE000091BC001091BD000C17FC
S11302201D07DCF498012F5F3F4F3093BD002093EE
S1130230BC0088E090E0BC01621B730B2091BE00FF
S11302403091BF00821B930B0E946200811122C077
S11302501093BD000093BC001DC0C017D107D4F497
S11302609801215031093093BD002093BC0088E0EF
S113027090E0BC01621B730B2091BE003091BF0063
S1130280821B930B0E946200811104C01093BD0075
S11302900093BC00DF91CF911F910F91FF90EF90DD
S11302A008950E94CD020E945900E2EFF0E08EE82A
S11302B090E09383828380E890E0918380838091AF
S11302C0B6009091B7009093BF008093BE008091D8
S11302D0B4009091B5009093BD008093BC0008E0F9
S11302E010E0C0EAD0E00E9483008091BE009091AB
S11302F0BF009801281B390BC9012091BC00309123
S1130300BD00A801421B530B9A019093B700809340
S1130310B6005093B5004093B4003F934F939F931E
S11303208F93DF93CF930E94590C9FE926E831E025
S1130330915020403040E1F700C000000F900F9032
S11303400F900F900F900F90CECFAF92BF92CF929D
S1130350DF92FF920F931F93CF93DF936623B9F13C
S1130360C52FD42FF62E182F80ED0E946909812FF6
S11303700E94B30983E08A95F1F7000081ED0E94A1
S113038069090D2F1C2FCC24CA94CF0CD12CEFEF6C
S1130390CE1ADE0AC0E0D0E0AF2CB12CF1E0AF1AE7
S11303A0B108AC16BD0629F40E94E509F801808362
S11303B004C00E94CF09F801808321960F5F1F4F6C
S11303C0CC15DD0571F7CF2D0E94A60901C0C0E050
S11303D08C2FDF91CF911F910F91FF90DF90CF90E1
S11303E0BF90AF900895AB0161E00E94A50108950C
S11303F0EF92FF920F931F93CF93DF936623D1F075
S11304007A01162FC82F80ED0E9469098C2F0E9453
S1130410B309E7016FEF610F062F10E00F5F1F4F65
S11304200E0D1F1D89910E94B309C017D107D1F782
S11304300E94A609DF91CF911F910F91FF90EF9039
S11304400895CF93DF931F92CDB7DEB76983AE01D2
S11304504F5F5F4F61E00E94F8010F90DF91CF91F1
S11304600895FF920F931F93CF93DF931F92CDB7FD
S1130470DEB7F62E8A01BE016F5F7F4F0E94F30143
S113048021E030E002C0220F331FFA94E2F7998191
S11304902923F80120830F90DF91CF911F910F91B1
S11304A0FF900895EF92FF920F931F93CF93DF93E2
S11304B01F92CDB7DEB7442389F1F22E142F062FF5
S11304C0E82E1982BE016F5F7F4F0E94F3018823DB
S11304D029F1402F50E0411B51094F5F5F4F81E0EC
S11304E090E002C0880F991F1A95E2F70197042E35
S11304F002C0880F991F0A94E2F72F2D30E002C042
S1130500220F331F4A95E2F7682F6095998169237A
S11305108223682B69838E2D0E9421020F90DF9124
S1130520CF911F910F91FF90EF900895FF920F9339
S11305301F93CF93DF931F92CDB7DEB7182F062FEB
S1130540F42EBE016F5F7F4F0E94F301FF2051F034
S113055061E070E002C0660F771F0A95E2F78981B7
S1130560682B0AC061E070E002C0660F771F0A952D
S1130570E2F76095898168236983812F0E942102B3
S11305800F90DF91CF911F910F91FF90089540E05C
S113059066E08BE60E94960208950E94650983E056
S11305A08A95F1F7000087EA91E60197F1F700C018
S11305B000000E94C70283EC99E00197F1F700C0A4
S11305C0000021E043E062E08BE60E94520223E057
S11305D043E062E08AE10E94520264E089E10E9401
S11305E0210223E042E064E08BE10E94520220E019
S11305F042E064E08CE10E94520283B7856083BFCD
S113060089B7816089BF08958F929F92AF92BF92FC
S1130610CF92DF92EF92FF920F931F93CF93DF93CA
S11306204C015B016A01E90144EE50E06EE08BE3AA
S11306300E94A501E4EEF0E02081818190E0922BFC
S1130640D4018D939C932281838190E0922BD501D8
S11306508D939C932481858190E0922BD6018D9378
S11306609C932085818590E0922B998388832285B1
S1130670838590E0922BD8018D939C932485858566
S113068090E0922BF70191838083DF91CF911F91AA
S11306900F91FF90EF90DF90CF90BF90AF909F901D
S11306A08F9008954F925F926F927F928F929F9254
S11306B0AF92BF92CF92DF92EF92FF920F931F936C
S11306C0CF93DF93CDB7DEB7A4970FB6F894DEBF10
S11306D00FBECDBF6D877E878F87988B298B3A8B12
S11306E04B8B5C8BED8AFE8A0F8B188F20E030E0F9
S11306F0A901C601B5010E94680A811117C020E052
S113070030E0A9016FA978AD89AD9AAD0E94680A5D
S113071081110CC020E030E0A9016BAD7CAD8DAD42
S11307209EAD0E94680A882309F41AC2A6019501A5
S1130730C601B5010E94910B2B013C012FA938ADD4
S113074049AD5AADCA01B9010E94910B69837A83FC
S11307508B839C839B01AC01C301B2010E94FC0901
S11307606D8F7E8F8F8F98A32BAD3CAD4DAD5EAD5D
S1130770CA01B9010E94910B698F7A8F8B8F9C8F6C
S113078029813A814B815C81C301B2010E94FC0939
S11307902B013C01298D3A8D4B8D5C8DC301B20137
S11307A00E94FC090E94040C2B013C019B01AC013A
S11307B0C601B5010E946D0A69837A838B839C8389
S11307C0A30192016FA978AD89AD9AAD0E946D0A1B
S11307D06D837E838F839887A30192016BAD7CAD7B
S11307E08DAD9EAD0E946D0A69877A878B879C8741
S11307F06091E0007091E1008091E2009091E3004B
S11308002091D8003091D9004091DA005091DB005A
S113081080909C0090909D00A0909E00B0909F00BE
S11308204090DC005090DD006090DE007090DF00AE
S11308300E94910B6B017C01A3019201C501B401DB
S11308400E94910B9B01AC01C701B6010E94FB09F8
S1130850698F7A8F8B8F9C8F60919C0070919D0023
S113086080919E0090919F002091E0003091E100E2
S11308704091E2005091E3008090DC009090DD0014
S1130880A090DE00B090DF004090D8005090D900D6
S11308906090DA007090DB000E94910B6B017C0188
S11308A0A3019201C501B4010E94910B9B01AC010B
S11308B0C701B6010E94FC096D8F7E8F8F8F98A3AC
S11308C060919C0070919D0080919E0090919F008A
S11308D020919C0030919D0040919E0050919F007A
S11308E08090D8009090D900A090DA00B090DB00FE
S11308F04090D8005090D9006090DA007090DB00EE
S11309000E94910B20E030E040E05FE30E94FB098D
S11309106B017C01A3019201C501B4010E94910BFA
S11309209B01AC01C701B6010E94FC096B017C016B
S11309309B01AC016D817E818F8198850E94910B12
S11309404B015C012D8D3E8D4F8D58A169857A85B3
S11309508B859C850E94910B9B01AC01C501B40160
S11309600E94FB0969A37AA38BA39CA3298D3A8DCA
S11309704B8D5C8D69857A858B859C850E94910B56
S11309804B015C01A701960169817A818B819C816D
S11309900E94910B9B01AC01C501B4010E94FB09AB
S11309A02B013C012D8D3E8D4F8D58A169817A819B
S11309B08B819C810E94910B6B017C01298D3A8D66
S11309C04B8D5C8D6D817E818F8198850E94910B0A
S11309D09B01AC01C701B6010E94FB094B015C01FC
S11309E0C090D400D090D500E090D600F090D7000D
S11309F02DEC3CEC4CE45EE369A17AA18BA19CA1B3
S1130A000E94910B2AE83BE446E85CE30E94910BC8
S1130A10A70196010E94FC096093D4007093D5004D
S1130A208093D6009093D700C090D000D090D1008E
S1130A30E090D200F090D3002DEC3CEC4CE45EE36B
S1130A40C301B2010E94910B2AE83BE446E85CE34F
S1130A500E94910BA70196010E94FC096093D000AB
S1130A607093D1008093D2009093D300C090CC00B7
S1130A70D090CD00E090CE00F090CF002DEC3CEC77
S1130A804CE45EE3C501B4010E94910B2AE83BE407
S1130A9046E85CE30E94910BA70196010E94FC09C1
S1130AA06093CC007093CD008093CE009093CF00E0
S1130AB02091D4003091D5004091D6005091D700B8
S1130AC06D857E858F8598890E94FC096D837E8360
S1130AD08F8398872091D0003091D1004091D2002B
S1130AE05091D30069897A898B899C890E94FC0979
S1130AF06B017C012091CC003091CD004091CE005F
S1130B005091CF006D897E898F89988D0E94FC0950
S1130B1069877A878B879C872D813E814F81588591
S1130B2069A17AA18BA19CA10E94FC096D877E8793
S1130B308F87988BA7019601C301B2010E94FC091B
S1130B40698B7A8B8B8B9C8B29853A854B855C854D
S1130B50C501B4010E94FC096D8B7E8B8F8B988F2D
S1130B602AE83BE446E05CE36D857E858F859889C1
S1130B700E94910B6D837E838F8398872AE83BE4E0
S1130B8046E05CE369897A898B899C890E94910B90
S1130B9069877A878B879C872AE83BE446E05CE395
S1130BA06D897E898F89988D0E94910B6D877E87D0
S1130BB08F87988B80919C0090919D00A0919E00BE
S1130BC0B0919F00898B9A8BAB8BBC8B8090E0009B
S1130BD09090E100A090E200B090E3008091DC00EE
S1130BE09091DD00A091DE00B091DF008D8B9E8B93
S1130BF0AF8BB88F4090D8005090D9006090DA0045
S1130C007090DB00C0909C00D0909D00E0909E000E
S1130C10F0909F00C501B40190582D813E814F8111
S1130C2058850E94910B69837A838B839C832D89D9
S1130C303E894F89588D69857A858B859C850E946C
S1130C40910B9B01AC0169817A818B819C810E940B
S1130C50FB0969837A838B839C83A30192016D854D
S1130C607E858F8598890E94910B9B01AC016981D7
S1130C707A818B819C810E94FB09A70196010E94C5
S1130C80FC0960939C0070939D0080939E00909358
S1130C909F004090D8005090D9006090DA00709086
S1130CA0DB00C090E000D090E100E090E200F09022
S1130CB0E30029893A894B895C896D817E818F8122
S1130CC098850E94910B69837A838B839C832D89F9
S1130CD03E894F89588D6D857E858F8598890E94C0
S1130CE0910B9B01AC0169817A818B819C810E946B
S1130CF0FC0969837A838B839C83A30192016985B0
S1130D007A858B859C850E94910B9B01AC0169813E
S1130D107A818B819C810E94FB09A70196010E9424
S1130D20FC096093E0007093E1008093E2009093EB
S1130D30E3004090D8005090D9006090DA007090A1
S1130D40DB00C090DC00D090DD00E090DE00F0908D
S1130D50DF0029893A894B895C8969857A858B8585
S1130D609C850E94910B69837A838B839C83A50164
S1130D7094016D857E858F8598890E94910B9B01D6
S1130D80AC0169817A818B819C810E94FB09698312
S1130D907A838B839C83A30192016D817E818F81F1
S1130DA098850E94910B9B01AC0169817A818B81AA
S1130DB09C810E94FC09A70196010E94FC09609392
S1130DC0DC007093DD008093DE009093DF00C09020
S1130DD0D800D090D900E090DA00F090DB002989A7
S1130DE03A894B895C896D857E858F8598890E94B7
S1130DF0910B2B013C01A501940169857A858B85B2
S1130E009C850E94910B9B01AC01C301B2010E941D
S1130E10FC094B015C012D893E894F89588D6D81F8
S1130E207E818F8198850E94910B9B01AC01C50145
S1130E30B4010E94FB09A70196010E94FC0960937A
S1130E40D8007093D9008093DA009093DB00C090AF
S1130E509C00D0909D00E0909E00F0909F008090B8
S1130E609C0090909D00A0909E00B0909F00809167
S1130E70E0009091E100A091E200B091E3008D8345
S1130E809E83AF83B8878091E0009091E100A091A8
S1130E90E200B091E30089879A87AB87BC87809191
S1130EA0DC009091DD00A091DE00B091DF008D8721
S1130EB09E87AF87B88B8091DC009091DD00A09174
S1130EC0DE00B091DF00898B9A8BAB8BBC8B40909A
S1130ED0D8005090D9006090DA007090DB008091C7
S1130EE0D8009091D900A091DA00B091DB008D8BED
S1130EF09E8BAF8BB88FA5019401C701B6010E94E8
S1130F00910B69837A838B839C8329853A854B85EE
S1130F105C856D817E818F8198850E94910B9B01F8
S1130F20AC0169817A818B819C810E94FC0969836F
S1130F307A838B839C8329893A894B895C896D8563
S1130F407E858F8598890E94910B9B01AC016981F4
S1130F507A818B819C810E94FC0969837A838B83CB
S1130F609C83A5019401C701B6010E94910B6B01FA
S1130F707C0129853A854B855C856D817E818F81D5
S1130F8098850E94910B9B01AC01C701B6010E9498
S1130F90FC096B017C0129893A894B895C896D853F
S1130FA07E858F8598890E94910B9B01AC01C701B6
S1130FB0B6010E94FC096B017C012D893E894F8991
S1130FC0588DC301B2010E94910B9B01AC01C70172
S1130FD0B6010E94FC090E94040C6B017C01609123
S1130FE09C0070919D0080919E0090919F00A701AC
S1130FF096010E946D0A60939C0070939D008093FB
S11310009E0090939F006091E0007091E1008091B8
S1131010E2009091E300A70196010E946D0A60939B
S1131020E0007093E1008093E2009093E30060910C
S1131030DC007091DD008091DE009091DF00A7015B
S113104096010E946D0A6093DC007093DD0080932A
S1131050DE009093DF006091D8007091D9008091F8
S1131060DA009091DB00A70196010E946D0A60935B
S1131070D8007093D9008093DA009093DB00A49693
S11310800FB6F894DEBF0FBECDBFDF91CF911F9195
S11310900F91FF90EF90DF90CF90BF90AF909F9013
S11310A08F907F906F905F904F9008954F925F92D2
S11310B06F927F92AF92BF92CF92DF92EF92FF92A4
S11310C00F931F93CF93DF93CDB7DEB72B970FB654
S11310D0F894DEBF0FBECDBF44EE50E060E08AE37B
S11310E00E9431028091E400811105C023E02A9519
S11310F0F1F70000F1CF44EE50E06EE08BE30E9484
S1131100A501E4EEF0E080816181028133813987B9
S1131110148195819A876084718452844384E48421
S1131120F58470E0782B072E000C880B990B0E9435
S1131130E10A20E030E040E858E30E94910B5B01B3
S11311406C016F2D70E07E29635E7F4F072E000CCB
S1131150880B990B0E94E10A23E333E343E851E44B
S11311600E946D0A24E33AEF4EE85CE30E94910B7F
S113117069837A838B839C83642D70E0752969501D
S11311807109072E000C880B990B0E94E10A23E3D6
S113119033E343E851E40E946D0A24E33AEF4EE856
S11311A05CE30E94910B6D837E838F839887672D08
S11311B070E07629665D7F4F072E000C880B990B33
S11311C00E94E10A23E333E343E851E40E946D0AF9
S11311D024E33AEF4EE85CE30E94910B2B013C01BF
S11311E02A85622F70E0712B072E000C880B990B57
S11311F00E94E10A20E030E040E858E30E94910BAD
S11312009F938F937F936F933985632F70E0CB0106
S1131210902B9B878A87BC01990F880B990B0E949E
S1131220E10A20E030E040E858E30E94910B9F93EC
S11312308F937F936F93E980FA800B811C812D81BA
S11312403E814F815885C301B2010E9452030FB6FB
S1131250F894DEBF0FBECDBF2B960FB6F894DEBF59
S11312600FBECDBFDF91CF911F910F91FF90EF90F3
S1131270DF90CF90BF90AF907F906F905F904F9032
S113128008951F920F920FB60F9211242F933F933C
S11312904F935F936F937F938F939F93AF93BF937A
S11312A0EF93FF930E945608FF91EF91BF91AF9186
S11312B09F918F917F916F915F914F913F912F916A
S11312C00F900FBE0F901F90189511B88CE080B945
S11312D0089594EA96BF4FEF50E060E070E006B6E0
S11312E007FC06C04150510961097109C0F704C0E7
S11312F0452B462B472B11F191B1987F983011F073
S11313009031F1F483B984E886BF8FEF90E0A0E0D8
S1131310B0E006B607FC05C00197A109B109C8F7FA
S113132004C0892B8A2B8B2B69F091B1987F98315B
S113133059F081E0903449F480E0089581E0089503
S113134081E0089581E0089580E0089584E986BFEE
S113135080E090E006B604FE05C00196811521E008
S11313609207C1F7089583B984E886BF8FEF90E0B0
S1131370A0E0B0E006B607FC05C00197A109B109D9
S1131380C8F704C0892B8A2B8B2B39F091B1987F35
S113139081E0983219F480E0089581E0089584ECA6
S11313A086BF8FEF90E0A0E0B0E006B607FC05C072
S11313B00197A109B109C8F704C0892B8A2B8B2B8B
S11313C011F083B1089580E0089584E886BF8FEF1B
S11313D090E0A0E0B0E006B607FC05C00197A109C3
S11313E0B109C8F704C0892B8A2B8B2B11F083B168
S11313F0089580E008955058BB27AA270E94130A35
S11314000C94570B0E94490B38F00E94500B20F0AB
S113141039F49F3F19F426F40C94460B0EF4E0952E
S1131420E7FB0C94400BE92F0E94680B58F3BA17A2
S1131430620773078407950720F079F4A6F50C94E6
S11314408A0B0EF4E0950B2EBA2FA02D0B01B901D7
S113145090010C01CA01A0011124FF27591B99F026
S1131460593F50F4503E68F11A16F040A22F232F32
S1131470342F4427585FF3CF469537952795A79582
S1131480F0405395C9F77EF41F16BA0B620B730B29
S1131490840BBAF09150A1F0FF0FBB1F661F771F9A
S11314A0881FC2F70EC0BA0F621F731F841F48F44F
S11314B0879577956795B795F7959E3F08F0B0CFD8
S11314C09395880F08F09927EE0F979587950895BF
S11314D00E941C0B08F481E008950E94810A0C9478
S11314E0570B0E94500B58F00E94490B40F029F40E
S11314F05F3F29F00C94400B51110C948B0B0C940E
S1131500460B0E94680B68F39923B1F3552391F3BA
S1131510951B550BBB27AA2762177307840738F05E
S11315209F5F5F4F220F331F441FAA1FA9F335D0BB
S11315300E2E3AF0E0E832D091505040E695001C6F
S1131540CAF72BD0FE2F29D0660F771F881FBB1F29
S1131550261737074807AB07B0E809F0BB0B802D07
S1131560BF01FF2793585F4F3AF09E3F510578F033
S11315700C94400B0C948B0B5F3FE4F3983ED4F334
S1131580869577956795B795F7959F5FC9F7880F07
S1131590911D9695879597F90895E1E0660F771F59
S11315A0881FBB1F621773078407BA0720F0621BEA
S11315B0730B840BBA0BEE1F88F7E0950895E8943B
S11315C009C097FB3EF490958095709561957F4F87
S11315D08F4F9F4F9923A9F0F92F96E9BB27939535
S11315E0F695879577956795B795F111F8CFFAF445
S11315F0BB0F11F460FF1BC06F5F7F4F8F4F9F4F76
S113160016C0882311F096E911C0772321F09EE8D3
S1131610872F762F05C0662371F096E8862F70E039
S113162060E02AF09A95660F771F881FDAF7880F13
S11316309695879597F90895990F0008550FAA0B69
S1131640E0E8FEEF16161706E807F907C0F01216D1
S11316501306E407F50798F0621B730B840B950BD4
S113166039F40A2661F0232B242B252B21F4089529
S11316700A2609F4A140A6958FEF811D811D0895C6
S113168097F99F6780E870E060E008959FEF80EC31
S1131690089500240A9416161706180609060895D4
S11316A000240A9412161306140605060895092E3A
S11316B00394000C11F4882352F0BB0F40F4BF2BA9
S11316C011F460FF04C06F5F7F4F8F4F9F4F0895E9
S11316D057FD9058440F551F59F05F3F71F04795DF
S11316E0880F97FB991F61F09F3F79F087950895C4
S11316F0121613061406551FF2CF4695F1DF08C0E3
S1131700161617061806991FF1CF869571056105FF
S113171008940895E894BB2766277727CB0197F9A7
S113172008950E94A40B0C94570B0E94490B38F0A7
S11317300E94500B20F0952311F00C94400B0C9454
S1131740460B11240C948B0B0E94680B70F3959F2D
S1131750C1F3950F50E0551F629FF001729FBB27A4
S1131760F00DB11D639FAA27F00DB11DAA1F649F40
S11317706627B00DA11D661F829F2227B00DA11DF3
S1131780621F739FB00DA11D621F839FA00D611D79
S1131790221F749F3327A00D611D231F849F600D9A
S11317A0211D822F762F6A2F11249F5750409AF0C3
S11317B0F1F088234AF0EE0FFF1FBB1F661F771F4F
S11317C0881F91505040A9F79E3F510580F00C941A
S11317D0400B0C948B0B5F3FE4F3983ED4F3869557
S11317E077956795B795F795E7959F5FC1F7FE2BBA
S11317F0880F911D9695879597F9089519F416F415
S11318000C94460B0C94440C0E94700BB8F399236F
S1131810C9F3B6F39F57550B87FF0E94520C00245F
S1131820A0E640EA900180585695979528F4805C8C
S1131830660F771F881F20F026173707480730F4F4
S1131840621B730B840B202931294A2BA69517940C
S11318500794202531254A2758F7660F771F881FDC
S113186020F026173707480730F4620B730B840BFC
S1131870200D311D411DA09581F7B901842F915888
S1131880880F9695879508959F3F31F0915020F4E5
S1131890879577956795B795880F911D9695879548
S11318A097F9089591505040660F771F881FD2F71B
S11318B00895A0E0B0E0EFE5FCE00C94100FAE0159
S11318C04B5F5F4FFA0161917191AF018091F40018
S11318D09091F5000E946F0CE2E00C942C0FABE0A9
S11318E0B0E0E5E7FCE00C94000F6C017B018A0199
S11318F0FC0117821682838181FFCCC1CE0101963F
S11319003C01F6019381F70193FD859193FF819149
S11319107F01882309F4BAC1853239F493FD859196
S113192093FF81917F01853229F4B60190E00E94F2
S1131930660EE7CF912C212C312CFFE1F315D8F062
S11319408B3279F038F4803279F08332A1F4232D8C
S113195020611DC08D3261F0803369F4232D216034
S113196016C0832D8260382EE32DE4603E2E2AC0FB
S1131970F32DF8601DC037FC2DC020ED280F2A3050
S113198040F08E32B9F436FC81C1232D2064322E0E
S113199019C036FE06C08AE0989E200D1124922EAE
S11319A011C0EAE02E9E200D1124222EF32DF062A8
S11319B03F2E08C08C3621F4832D8068382E02C057
S11319C0883641F4F70193FD859193FF81917F015E
S11319D08111B3CF982F9F7D9554933028F40C5FD9
S11319E01F4F9FE399830DC0833631F0833771F025
S11319F0833509F059C021C0F801808189830E5FC5
S1131A001F4F88248394912C530113C02801F2E0C2
S1131A104F0E511CF801A080B18036FE03C0692D21
S1131A2070E002C06FEF7FEFC5010E945B0E4C01B6
S1131A308201F32DFF773F2E16C0280122E0420ECB
S1131A40511CF801A080B18036FE03C0692D70E0FE
S1131A5002C06FEF7FEFC5010E94500E4C01F32DC1
S1131A60F0683F2E820133FC1BC0822D90E0881663
S1131A709906B0F4B60180E290E00E94660E2A94C2
S1131A80F4CFF50137FC859137FE81915F01B601F2
S1131A9090E00E94660E21102A9421E0821A910897
S1131AA08114910471F7E8C0843611F0893641F548
S1131AB0F80137FE07C060817181828193810C5FD8
S1131AC01F4F08C060817181072E000C880B990B91
S1131AD00E5F1F4FF32DFF763F2E97FF09C09095A1
S1131AE08095709561957F4F8F4F9F4FF0683F2E83
S1131AF02AE030E0A3010E94A20E882E861845C079
S1131B00853731F4232D2F7EB22E2AE030E025C014
S1131B10932D997FB92E8F36C1F018F4883579F05A
S1131B20B5C0803719F0883721F0B0C0E92FE061E3
S1131B30BE2EB4FE0DC0FB2DF460BF2E09C034FED2
S1131B400AC0292F2660B22E06C028E030E005C066
S1131B5020E130E002C020E132E0F801B7FE07C026
S1131B6060817181828193810C5F1F4F06C0608107
S1131B70718180E090E00E5F1F4FA3010E94A20ECE
S1131B80882E8618FB2DFF773F2E36FE0DC0232DA1
S1131B902E7FA22E891458F434FE0BC032FC09C0E7
S1131BA0832D8E7EA82E05C0B82CA32C03C0B82C80
S1131BB001C0B92CA4FE0FC0FE01E80DF11D808107
S1131BC0803321F49A2D997EA92E09C0A2FE06C065
S1131BD0B394B39404C08A2D867809F0B394A3FC1B
S1131BE011C0A0FE06C0B21488F4280C922C9B18D5
S1131BF00EC0B21460F4B60180E290E00E94660E5A
S1131C00B394F7CFB21418F42B1802C0982C212CDB
S1131C10A4FE10C0B60180E390E00E94660EA2FE0E
S1131C2017C0A1FC03C088E790E002C088E590E0FB
S1131C30B6010CC08A2D867859F0A1FE02C08BE251
S1131C4001C080E2A7FC8DE2B60190E00E94660E1E
S1131C50891438F4B60180E390E00E94660E9A94E9
S1131C60F7CF8A94F301E80DF11D8081B60190E06D
S1131C700E94660E8110F5CF222009F442CEB601EF
S1131C8080E290E00E94660E2A94F6CFF6018681E7
S1131C90978102C08FEF9FEF2B96E2E10C941C0F0B
S1131CA0FC010590615070400110D8F78095909523
S1131CB08E0F9F1F0895FC01615070400190011028
S1131CC0D8F7809590958E0F9F1F08950F931F93BB
S1131CD0CF93DF93FB01238121FD03C08FEF9FEF9F
S1131CE02CC022FF16C046815781248135814217BA
S1131CF0530744F4A081B1819D012F5F3F4F31838D
S1131D0020838C93268137812F5F3F4F378326832F
S1131D1014C08B01EC01FB010084F185E02D0995D1
S1131D20892BE1F6D80116968D919C91179701960F
S1131D3017969C938E931697CE01DF91CF911F91A6
S1131D400F910895FA01AA27283051F1203181F129
S1131D50E8946F936E7F6E5F7F4F8F4F9F4FAF4FAF
S1131D60B1E03ED0B4E03CD0670F781F891F9A1FC2
S1131D70A11D680F791F8A1F911DA11D6A0F711D76
S1131D80811D911DA11D20D009F468943F912AE082
S1131D90269F11243019305D3193DEF6CF0108956A
S1131DA0462F4770405D4193B3E00FD0C9F7F6CF9B
S1131DB0462F4F70405D4A3318F0495D31FD405263
S1131DC0419302D0A9F7EACFB4E0A69597958795F9
S1131DD077956795BA95C9F70097610571050895D8
S1131DE09B01AC010A2E0694579547953795279584
S1131DF0BA95C9F7620F731F841F951FA01D08951C
S1131E002F923F924F925F926F927F928F929F9206
S1131E10AF92BF92CF92DF92EF92FF920F931F93F4
S1131E20CF93DF93CDB7DEB7CA1BDB0B0FB6F894A5
S1131E30DEBF0FBECDBF09942A88398848885F84E5
S1131E406E847D848C849B84AA84B984C884DF8056
S1131E50EE80FD800C811B81AA81B981CE0FD11D3A
S1131E600FB6F894DEBF0FBECDBFED010895F89410
S1051E70FFCF9E
S1131E72FFFFFFFFFFFFFFFFFFFFFFFFFFFFFFFF6C
S1131E82FFFFFFFFFFFFFFFFFFFFFFFFFFFFFFFF5C
S1131E9200000001000000000000550000000000E6
S1131EA20002000000004900000000000000803F22
S1131EB2706C6179657220583A20256420593A2061
S1071EC225640A0085
S9030000FC
