S01000004779726F546573742E73726563D3
S11300000C942A000C9447000C9447000C9447006D
S11300100C9447000C9447000C9447000C94470040
S11300200C9447000C9447000C9447000C9430093E
S11300300C9447000C9447000C9447000C94470020
S11300400C9447000C9447000C9447000C94470010
S11300500C94470011241FBECFE5D8E0DEBFCDBF0E
S113006010E0A0E6B0E0E0E5FEE102C005900D92EC
S1130070AE39B107D9F720E0AEE9B0E001C01D9276
S1130080A23EB207E1F70E94F4000C94260F0C94F0
S11300900000CF93C82F8A3019F48DE00E944900E4
S11300A05D9BFECFCCB9CF9108955F9BFECF8CB101
S11300B0089510BC8CE089B9599A86E880BD88E11E
S11300C08AB90895EF92FF920F931F930F2EFAEAC5
S11300D0EF2EF0E0FF2EF02D0CEA10E02EEA30E0D7
S11300E040EB50E062EB70E084EB90E00E94F3029E
S11300F02091B4003091B500332314F42150384FCB
S1130100832F859585958595932F990F990B9093BA
S1130110A5008093A4004091B2005091B3005523F0
S113012014F44150584F252F259525952595352FA5
S1130130330F330B3093A3002093A2004091A80007
S11301405091A9008417950741F48091A6009091DD
S1130150A7002817390701F542C0481759076CF45E
S113016087E090E0841B950B4097B0F44F5F5F4F9E
S11301705093A9004093A8000FC08417950764F416
S113018089E090E0841B950B409730F4415051096D
S11301905093A9004093A8008091A6009091A700D5
S11301A0821793076CF427E030E0281B390B2031C9
S11301B03105A8F401969093A7008093A6000FC080
S11301C02817390764F429E030E0281B390B203163
S11301D0310528F401979093A7008093A6001F91FE
S11301E00F91FF90EF9008950E94BC020E94590065
S11301F0ECEDF0E08EE690E09383828380E690E07D
S1130200918380838FEF87BB18BA8091A00090916F
S1130210A1009093A9008093A80080919E009091E2
S11302209F009093A7008093A6006894CC24C3F801
S1130230D12C0F2EF0E8AF2EF0E0BF2EF02D0F2EB4
S1130240FAE8EF2EF0E0FF2EF02D0E94620080917C
S1130250A8009091A9008601081B190B8091A600A3
S11302609091A700E601C81BD90B8091A000909142
S1130270A10008171907D1F088B31F928F93BF927A
S1130280AF920E94480C0F900F900F900F90C09B5C
S113029002C0C09801C0C09A8091A0009091A100B2
S11302A08017910714F4C19801C0C09A80919E00F0
S11302B090919F00C817D907B9F0C29B02C0C29899
S11302C001C0C29A80919E0090919F008C179D0757
S11302D014F4C39801C0C39A1093A1000093A00022
S11302E0D0939F00C0939E0080919F008F93809134
S11302F09E008F938091A1008F938091A0008F9393
S1130300FF92EF920E94480C2FE986E891E0215079
S113031080409040E1F700C000000F900F900F90D4
S11303200F900F900F9091CFAF92BF92CF92DF9228
S1130330FF920F931F93CF93DF936623B9F1C52FD9
S1130340D42FF62E182F80ED0E945809812F0E9479
S1130350A20983E08A95F1F7000081ED0E94580913
S11303600D2F1C2FCC24CA94CF0CD12CEFEFCE1A16
S1130370DE0AC0E0D0E0AF2CB12CF1E0AF1AB10836
S1130380AC16BD0629F40E94D409F801808304C088
S11303900E94BE09F801808321960F5F1F4FCC1580
S11303A0DD0571F7CF2D0E94950901C0C0E08C2FA7
S11303B0DF91CF911F910F91FF90DF90CF90BF906D
S11303C0AF900895AB0161E00E9494010895EF920B
S11303D0FF920F931F93CF93DF936623D1F07A019B
S11303E0162FC82F80ED0E9458098C2F0E94A20955
S11303F0E7016FEF610F062F10E00F5F1F4F0E0D27
S11304001F1D89910E94A209C017D107D1F70E942C
S11304109509DF91CF911F910F91FF90EF9008956F
S1130420CF93DF931F92CDB7DEB76983AE014F5FE1
S11304305F4F61E00E94E7010F90DF91CF91089533
S1130440FF920F931F93CF93DF931F92CDB7DEB725
S1130450F62E8A01BE016F5F7F4F0E94E20121E008
S113046030E002C0220F331FFA94E2F79981292366
S1130470F80120830F90DF91CF911F910F91FF908E
S11304800895EF92FF920F931F93CF93DF931F92E0
S1130490CDB7DEB7442389F1F22E142F062FE82EB0
S11304A01982BE016F5F7F4F0E94E201882329F108
S11304B0402F50E0411B51094F5F5F4F81E090E0B6
S11304C002C0880F991F1A95E2F70197042E02C003
S11304D0880F991F0A94E2F72F2D30E002C0220FF3
S11304E0331F4A95E2F7682F609599816923822327
S11304F0682B69838E2D0E9410020F90DF91CF919B
S11305001F910F91FF90EF900895FF920F931F9307
S1130510CF93DF931F92CDB7DEB7182F062FF42E9B
S1130520BE016F5F7F4F0E94E201FF2051F061E046
S113053070E002C0660F771F0A95E2F78981682B85
S11305400AC061E070E002C0660F771F0A95E2F707
S11305506095898168236983812F0E9410020F901E
S1130560DF91CF911F910F91FF90089540E066E0D5
S11305708BE60E94850208950E94540983E08A95BF
S1130580F1F7000087EA91E60197F1F700C0000057
S11305900E94B60283EC99E00197F1F700C00000D5
S11305A021E043E062E08BE60E94410223E043E065
S11305B062E08AE10E94410264E089E10E94100243
S11305C023E042E064E08BE10E94410220E042E04B
S11305D064E08CE10E94410283B7856083BF89B7E0
S11305E0816089BF08958F929F92AF92BF92CF92FC
S11305F0DF92EF92FF920F931F93CF93DF934C01FF
S11306005B016A01E9014EEC50E06EE08BE30E946D
S11306109401EEECF0E02081818190E0922BD401F2
S11306208D939C932281838190E0922BD5018D93AD
S11306309C932481858190E0922BD6018D939C9389
S11306402085818590E0922B9983888322858385F8
S113065090E0922BD8018D939C932485858590E01E
S1130660922BF70191838083DF91CF911F910F919A
S1130670FF90EF90DF90CF90BF90AF909F908F90BE
S113068008954F925F926F927F928F929F92AF9252
S1130690BF92CF92DF92EF92FF920F931F93CF936B
S11306A0DF93CDB7DEB7A4970FB6F894DEBF0FBEC5
S11306B0CDBF6D877E878F87988B298B3A8B4B8B29
S11306C05C8BED8AFE8A0F8B188F20E030E0A90145
S11306D0C601B5010E94570A811117C020E030E01D
S11306E0A9016FA978AD89AD9AAD0E94570A81110D
S11306F00CC020E030E0A9016BAD7CAD8DAD9EADAA
S11307000E94570A882309F41AC2A6019501C6015A
S1130710B5010E94800B2B013C012FA938AD49ADD6
S11307205AADCA01B9010E94800B69837A838B8315
S11307309C839B01AC01C301B2010E94EB096D8F44
S11307407E8F8F8F98A32BAD3CAD4DAD5EADCA01AE
S1130750B9010E94800B698F7A8F8B8F9C8F2981BE
S11307603A814B815C81C301B2010E94EB092B01E8
S11307703C01298D3A8D4B8D5C8DC301B2010E94E1
S1130780EB090E94F30B2B013C019B01AC01C60158
S1130790B5010E945C0A69837A838B839C83A301DD
S11307A092016FA978AD89AD9AAD0E945C0A6D8300
S11307B07E838F839887A30192016BAD7CAD8DAD51
S11307C09EAD0E945C0A69877A878B879C876091BB
S11307D0CA007091CB008091CC009091CD00209103
S11307E0C2003091C3004091C4005091C500809074
S11307F07C0090907D00A0907E00B0907F0040909F
S1130800C6005090C7006090C8007090C9000E9454
S1130810800B6B017C01A3019201C501B4010E940C
S1130820800B9B01AC01C701B6010E94EA09698FE4
S11308307A8F8B8F9C8F60917C0070917D0080916A
S11308407E0090917F002091CA003091CB004091AE
S1130850CC005091CD008090C6009090C700A0902D
S1130860C800B090C9004090C2005090C30060908E
S1130870C4007090C5000E94800B6B017C01A30131
S11308809201C501B4010E94800B9B01AC01C70118
S1130890B6010E94EB096D8F7E8F8F8F98A36091B4
S11308A07C0070917D0080917E0090917F0020916A
S11308B07C0030917D0040917E0050917F008090BB
S11308C0C2009090C300A090C400B090C5004090B6
S11308D0C2005090C3006090C4007090C5000E9494
S11308E0800B20E030E040E05FE30E94EA096B0106
S11308F07C01A3019201C501B4010E94800B9B01FC
S1130900AC01C701B6010E94EB096B017C019B019C
S1130910AC016D817E818F8198850E94800B4B0193
S11309205C012D8D3E8D4F8D58A169857A858B850F
S11309309C850E94800B9B01AC01C501B4010E94FF
S1130940EA0969A37AA38BA39CA3298D3A8D4B8DC5
S11309505C8D69857A858B859C850E94800B4B0113
S11309605C01A701960169817A818B819C810E9437
S1130970800B9B01AC01C501B4010E94EA092B0163
S11309803C012D8D3E8D4F8D58A169817A818B81DB
S11309909C810E94800B6B017C01298D3A8D4B8DCB
S11309A05C8D6D817E818F8198850E94800B9B0177
S11309B0AC01C701B6010E94EA094B015C01C09079
S11309C0BE00D090BF00E090C000F090C1002DECBC
S11309D03CEC4CE45EE369A17AA18BA19CA10E944A
S11309E0800B2AE83BE446E85CE30E94800BA70105
S11309F096010E94EB096093BE007093BF00809340
S1130A00C0009093C100C090BA00D090BB00E090A9
S1130A10BC00F090BD002DEC3CEC4CE45EE3C30163
S1130A20B2010E94800B2AE83BE446E85CE30E94A2
S1130A30800BA70196010E94EB096093BA007093A2
S1130A40BB008093BC009093BD00C090B600D090D2
S1130A50B700E090B800F090B9002DEC3CEC4CE409
S1130A605EE3C501B4010E94800B2AE83BE446E83A
S1130A705CE30E94800BA70196010E94EB0960933E
S1130A80B6007093B7008093B8009093B90020919A
S1130A90BE003091BF004091C0005091C1006D85EF
S1130AA07E858F8598890E94EB096D837E838F8371
S1130AB098872091BA003091BB004091BC005091BE
S1130AC0BD0069897A898B899C890E94EB096B0135
S1130AD07C012091B6003091B7004091B80050914C
S1130AE0B9006D897E898F89988D0E94EB09698789
S1130AF07A878B879C872D813E814F81588569A198
S1130B007AA18BA19CA10E94EB096D877E878F87B8
S1130B10988BA7019601C301B2010E94EB09698B6E
S1130B207A8B8B8B9C8B29853A854B855C85C5019B
S1130B30B4010E94EB096D8B7E8B8F8B988F2AE812
S1130B403BE446E05CE36D857E858F8598890E9451
S1130B50800B6D837E838F8398872AE83BE446E08D
S1130B605CE369897A898B899C890E94800B6987F7
S1130B707A878B879C872AE83BE446E05CE36D89AF
S1130B807E898F89988D0E94800B6D877E878F87E1
S1130B90988B80917C0090917D00A0917E00B09113
S1130BA07F00898B9A8BAB8BBC8B8090CA00909012
S1130BB0CB00A090CC00B090CD008091C600909165
S1130BC0C700A091C800B091C9008D8B9E8BAF8BDC
S1130BD0B88F4090C2005090C3006090C4007090E1
S1130BE0C500C0907C00D0907D00E0907E00F09025
S1130BF07F00C501B40190582D813E814F815885F5
S1130C000E94800B69837A838B839C832D893E8920
S1130C104F89588D69857A858B859C850E94800BC8
S1130C209B01AC0169817A818B819C810E94EA09D4
S1130C3069837A838B839C83A30192016D857E856E
S1130C408F8598890E94800B9B01AC0169817A8110
S1130C508B819C810E94EA09A70196010E94EB09FD
S1130C6060937C0070937D0080937E0090937F005E
S1130C704090C2005090C3006090C4007090C500C2
S1130C80C090CA00D090CB00E090CC00F090CD0092
S1130C9029893A894B895C896D817E818F81988508
S1130CA00E94800B69837A838B839C832D893E8980
S1130CB04F89588D6D857E858F8598890E94800B1C
S1130CC09B01AC0169817A818B819C810E94EB0933
S1130CD069837A838B839C83A301920169857A85D6
S1130CE08B859C850E94800B9B01AC0169817A8174
S1130CF08B819C810E94EA09A70196010E94EB095D
S1130D006093CA007093CB008093CC009093CD0085
S1130D104090C2005090C3006090C4007090C50021
S1130D20C090C600D090C700E090C800F090C90001
S1130D3029893A894B895C8969857A858B859C8563
S1130D400E94800B69837A838B839C83A501940121
S1130D506D857E858F8598890E94800B9B01AC01EF
S1130D6069817A818B819C810E94EA0969837A83F3
S1130D708B839C83A30192016D817E818F819885F1
S1130D800E94800B9B01AC0169817A818B819C81DB
S1130D900E94EB09A70196010E94EB096093C6002B
S1130DA07093C7008093C8009093C900C090C2009C
S1130DB0D090C300E090C400F090C50029893A891E
S1130DC04B895C896D857E858F8598890E94800B0F
S1130DD02B013C01A501940169857A858B859C854D
S1130DE00E94800B9B01AC01C301B2010E94EB097C
S1130DF04B015C012D893E894F89588D6D817E811F
S1130E008F8198850E94800B9B01AC01C501B401C0
S1130E100E94EA09A70196010E94EB096093C200AF
S1130E207093C3008093C4009093C500C0907C006D
S1130E30D0907D00E0907E00F0907F0080907C0058
S1130E4090907D00A0907E00B0907F008091CA00B9
S1130E509091CB00A091CC00B091CD008D839E8366
S1130E60AF83B8878091CA009091CB00A091CC0049
S1130E70B091CD0089879A87AB87BC878091C600E3
S1130E809091C700A091C800B091C9008D879E873A
S1130E90AF87B88B8091C6009091C700A091C8001D
S1130EA0B091C900898B9A8BAB8BBC8B4090C200EC
S1130EB05090C3006090C4007090C5008091C2003F
S1130EC09091C300A091C400B091C5008D8B9E8BFE
S1130ED0AF8BB88FA5019401C701B6010E94800BA6
S1130EE069837A838B839C8329853A854B855C85CA
S1130EF06D817E818F8198850E94800B9B01AC015E
S1130F0069817A818B819C810E94EB0969837A8350
S1130F108B839C8329893A894B895C896D857E857D
S1130F208F8598890E94800B9B01AC0169817A812D
S1130F308B819C810E94EB0969837A838B839C83D8
S1130F40A5019401C701B6010E94800B6B017C01CD
S1130F5029853A854B855C856D817E818F81988555
S1130F600E94800B9B01AC01C701B6010E94EB09F2
S1130F706B017C0129893A894B895C896D857E8561
S1130F808F8598890E94800B9B01AC01C701B60133
S1130F900E94EB096B017C012D893E894F89588D94
S1130FA0C301B2010E94800B9B01AC01C701B601D1
S1130FB00E94EB090E94F30B6B017C0160917C00A1
S1130FC070917D0080917E0090917F00A701960131
S1130FD00E945C0A60937C0070937D0080937E0085
S1130FE090937F006091CA007091CB008091CC00F7
S1130FF09091CD00A70196010E945C0A6093CA00FB
S11310007093CB008093CC009093CD006091C60088
S11310107091C7008091C8009091C900A701960102
S11310200E945C0A6093C6007093C7008093C80056
S11310309093C9006091C2007091C3008091C40074
S11310409091C500A70196010E945C0A6093C200BA
S11310507093C3008093C4009093C500A4960FB608
S1131060F894DEBF0FBECDBFDF91CF911F910F91DA
S1131070FF90EF90DF90CF90BF90AF909F908F90B4
S11310807F906F905F904F9008954F925F926F9210
S11310907F92AF92BF92CF92DF92EF92FF920F9323
S11310A01F93CF93DF93CDB7DEB72B970FB6F8948A
S11310B0DEBF0FBECDBF4EEC50E060E08AE30E947D
S11310C020028091CE00811105C023E02A95F1F71A
S11310D00000F1CF4EEC50E06EE08BE30E949401EF
S11310E0EEECF0E0808161810281338139871481E3
S11310F095819A876084718452844384E484F5845E
S113110070E0782B072E000C880B990B0E94D00AF4
S113111020E030E040E858E30E94800B5B016C0162
S11311206F2D70E07E29635E7F4F072E000C880BC5
S1131130990B0E94D00A23E333E343E851E40E946D
S11311405C0A24E33AEF4EE85CE30E94800B698377
S11311507A838B839C83642D70E0752969507109AF
S1131160072E000C880B990B0E94D00A23E333E36B
S113117043E851E40E945C0A24E33AEF4EE85CE35E
S11311800E94800B6D837E838F839887672D70E028
S11311907629665D7F4F072E000C880B990B0E9401
S11311A0D00A23E333E343E851E40E945C0A24E3D6
S11311B03AEF4EE85CE30E94800B2B013C012A8548
S11311C0622F70E0712B072E000C880B990B0E9484
S11311D0D00A20E030E040E858E30E94800B9F935F
S11311E08F937F936F933985632F70E0CB01902B9E
S11311F09B878A87BC01990F880B990B0E94D00AA0
S113120020E030E040E858E30E94800B9F938F93E6
S11312107F936F93E980FA800B811C812D813E813D
S11312204F815885C301B2010E9441030FB6F8945F
S1131230DEBF0FBECDBF2B960FB6F894DEBF0FBE38
S1131240CDBFDF91CF911F910F91FF90EF90DF9071
S1131250CF90BF90AF907F906F905F904F90089524
S11312601F920F920FB60F9211242F933F934F9317
S11312705F936F937F938F939F93AF93BF93EF93FA
S1131280FF930E944508FF91EF91BF91AF919F9109
S11312908F917F916F915F914F913F912F910F901B
S11312A00FBE0F901F90189511B88CE080B9089567
S11312B094EA96BF4FEF50E060E070E006B607FC9A
S11312C006C04150510961097109C0F704C0452B9A
S11312D0462B472B11F191B1987F983011F0903142
S11312E0F1F483B984E886BF8FEF90E0A0E0B0E02A
S11312F006B607FC05C00197A109B109C8F704C0E7
S1131300892B8A2B8B2B69F091B1987F983159F0F6
S113131081E0903449F480E0089581E0089581E00B
S1131320089581E0089580E0089584E986BF80E00F
S113133090E006B604FE05C00196811521E09207EF
S1131340C1F7089583B984E886BF8FEF90E0A0E0E9
S1131350B0E006B607FC05C00197A109B109C8F7BA
S113136004C0892B8A2B8B2B39F091B1987F81E0B3
S1131370983219F480E0089581E0089584EC86BFE2
S11313808FEF90E0A0E0B0E006B607FC05C001973F
S1131390A109B109C8F704C0892B8A2B8B2B11F042
S11313A083B1089580E0089584E886BF8FEF90E0CC
S11313B0A0E0B0E006B607FC05C00197A109B10999
S11313C0C8F704C0892B8A2B8B2B11F083B10895A5
S11313D080E008955058BB27AA270E94020A0C9463
S11313E0460B0E94380B38F00E943F0B20F039F472
S11313F09F3F19F426F40C94350B0EF4E095E7FBAB
S11314000C942F0BE92F0E94570B58F3BA1762075D
S113141073078407950720F079F4A6F50C94790BEB
S11314200EF4E0950B2EBA2FA02D0B01B9019001FB
S11314300C01CA01A0011124FF27591B99F0593F3F
S113144050F4503E68F11A16F040A22F232F342F87
S11314504427585FF3CF469537952795A795F040D5
S11314605395C9F77EF41F16BA0B620B730B840BEA
S1131470BAF09150A1F0FF0FBB1F661F771F881FA2
S1131480C2F70EC0BA0F621F731F841F48F48795FA
S113149077956795B795F7959E3F08F0B0CF9395EC
S11314A0880F08F09927EE0F9795879508950E9465
S11314B00B0B08F481E008950E94700A0C94460B0B
S11314C00E943F0B58F00E94380B40F029F45F3F14
S11314D029F00C942F0B51110C947A0B0C94350BAE
S11314E00E94570B68F39923B1F3552391F3951B8D
S11314F0550BBB27AA2762177307840738F09F5F31
S11315005F4F220F331F441FAA1FA9F335D00E2E9D
S11315103AF0E0E832D091505040E695001CCAF70A
S11315202BD0FE2F29D0660F771F881FBB1F2617CD
S113153037074807AB07B0E809F0BB0B802DBF01A4
S1131540FF2793585F4F3AF09E3F510578F00C9473
S11315502F0B0C947A0B5F3FE4F3983ED4F38695FB
S113156077956795B795F7959F5FC9F7880F911D94
S11315709695879597F90895E1E0660F771F881F80
S1131580BB1F621773078407BA0720F0621B730B33
S1131590840BBA0BEE1F88F7E0950895E89409C010
S11315A097FB3EF490958095709561957F4F8F4F92
S11315B09F4F9923A9F0F92F96E9BB279395F695A8
S11315C0879577956795B795F111F8CFFAF4BB0F26
S11315D011F460FF1BC06F5F7F4F8F4F9F4F16C08A
S11315E0882311F096E911C0772321F09EE8872F14
S11315F0762F05C0662371F096E8862F70E060E0D0
S11316002AF09A95660F771F881FDAF7880F969548
S1131610879597F90895990F0008550FAA0BE0E8EC
S1131620FEEF16161706E807F907C0F012161306A0
S1131630E407F50798F0621B730B840B950B39F4E0
S11316400A2661F0232B242B252B21F408950A2646
S113165009F4A140A6958FEF811D811D089597F986
S11316609F6780E870E060E008959FEF80EC089544
S113167000240A941616170618060906089500246D
S11316800A9412161306140605060895092E0394E7
S1131690000C11F4882352F0BB0F40F4BF2B11F45B
S11316A060FF04C06F5F7F4F8F4F9F4F089557FDBA
S11316B09058440F551F59F05F3F71F04795880FBC
S11316C097FB991F61F09F3F79F087950895121653
S11316D013061406551FF2CF4695F1DF08C01616FF
S11316E017061806991FF1CF8695710561050894B0
S11316F00895E894BB2766277727CB0197F90895C7
S11317000E94930B0C94460B0E94380B38F00E94F5
S11317103F0B20F0952311F00C942F0B0C94350BF8
S113172011240C947A0B0E94570B70F3959FC1F30C
S1131730950F50E0551F629FF001729FBB27F00D7B
S1131740B11D639FAA27F00DB11DAA1F649F6627D0
S1131750B00DA11D661F829F2227B00DA11D621F1F
S1131760739FB00DA11D621F839FA00D611D221FD9
S1131770749F3327A00D611D231F849F600D211DBD
S1131780822F762F6A2F11249F5750409AF0F1F040
S113179088234AF0EE0FFF1FBB1F661F771F881FA9
S11317A091505040A9F79E3F510580F00C942F0BA7
S11317B00C947A0B5F3FE4F3983ED4F386957795C7
S11317C06795B795F795E7959F5FC1F7FE2B880F4F
S11317D0911D9695879597F9089519F416F40C942C
S11317E0350B0C94330C0E945F0BB8F39923C9F3A7
S11317F0B6F39F57550B87FF0E94410C0024A0E6C7
S113180040EA900180585695979528F4805C660FBD
S1131810771F881F20F026173707480730F4621B0C
S1131820730B840B202931294A2BA695179407940E
S1131830202531254A2758F7660F771F881F20F087
S113184026173707480730F4620B730B840B200DFF
S1131850311D411DA09581F7B901842F9158880F3E
S11318609695879508959F3F31F0915020F4879580
S113187077956795B795880F911D9695879597F9F4
S1131880089591505040660F771F881FD2F708952E
S1131890A0E0B0E0EEE4FCE00C94FF0EAE014B5F80
S11318A05F4FFA0161917191AF018091DE009091D7
S11318B0DF000E945E0CE2E00C941B0FABE0B0E092
S11318C0E4E6FCE00C94EF0E6C017B018A01FC0160
S11318D017821682838181FFCCC1CE0101963C011F
S11318E0F6019381F70193FD859193FF81917F0127
S11318F0882309F4BAC1853239F493FD859193FFA5
S113190081917F01853229F4B60190E00E94550E41
S1131910E7CF912C212C312CFFE1F315D8F08B3239
S113192079F038F4803279F08332A1F4232D2061E8
S11319301DC08D3261F0803369F4232D216016C0FF
S1131940832D8260382EE32DE4603E2E2AC0F32DD1
S1131950F8601DC037FC2DC020ED280F2A3040F060
S11319608E32B9F436FC81C1232D2064322E19C085
S113197036FE06C08AE0989E200D1124922E11C0D6
S1131980EAE02E9E200D1124222EF32DF0623F2E2C
S113199008C08C3621F4832D8068382E02C0883626
S11319A041F4F70193FD859193FF81917F018111AA
S11319B0B3CF982F9F7D9554933028F40C5F1F4F1D
S11319C09FE399830DC0833631F0833771F08335FB
S11319D009F059C021C0F801808189830E5F1F4F2F
S11319E088248394912C530113C02801F2E04F0EF4
S11319F0511CF801A080B18036FE03C0692D70E04F
S1131A0002C06FEF7FEFC5010E944A0E4C018201B4
S1131A10F32DFF773F2E16C0280122E0420E511C01
S1131A20F801A080B18036FE03C0692D70E002C0C9
S1131A306FEF7FEFC5010E943F0E4C01F32DF0685C
S1131A403F2E820133FC1BC0822D90E0881699063C
S1131A50B0F4B60180E290E00E94550E2A94F4CFCF
S1131A60F50137FC859137FE81915F01B60190E065
S1131A700E94550E21102A9421E0821A91088114A3
S1131A80910471F7E8C0843611F0893641F5F80104
S1131A9037FE07C060817181828193810C5F1F4F83
S1131AA008C060817181072E000C880B990B0E5FB2
S1131AB01F4FF32DFF763F2E97FF09C09095809519
S1131AC0709561957F4F8F4F9F4FF0683F2E2AE0AE
S1131AD030E0A3010E94910E882E861845C08537F8
S1131AE031F4232D2F7EB22E2AE030E025C0932D31
S1131AF0997FB92E8F36C1F018F4883579F0B5C0C6
S1131B00803719F0883721F0B0C0E92FE061BE2E8C
S1131B10B4FE0DC0FB2DF460BF2E09C034FE0AC014
S1131B20292F2660B22E06C028E030E005C020E14F
S1131B3030E002C020E132E0F801B7FE07C0608166
S1131B407181828193810C5F1F4F06C06081718116
S1131B5080E090E00E5F1F4FA3010E94910E882E3B
S1131B608618FB2DFF773F2E36FE0DC0232D2E7FCA
S1131B70A22E891458F434FE0BC032FC09C0832D04
S1131B808E7EA82E05C0B82CA32C03C0B82C01C08F
S1131B90B92CA4FE0FC0FE01E80DF11D8081803335
S1131BA021F49A2D997EA92E09C0A2FE06C0B394F1
S1131BB0B39404C08A2D867809F0B394A3FC11C0B1
S1131BC0A0FE06C0B21488F4280C922C9B180EC0F8
S1131BD0B21460F4B60180E290E00E94550EB39412
S1131BE0F7CFB21418F42B1802C0982C212CA4FEA1
S1131BF010C0B60180E390E00E94550EA2FE17C00B
S1131C00A1FC03C088E790E002C088E590E0B6013B
S1131C100CC08A2D867859F0A1FE02C08BE201C067
S1131C2080E2A7FC8DE2B60190E00E94550E891473
S1131C3038F4B60180E390E00E94550E9A94F7CFF1
S1131C408A94F301E80DF11D8081B60190E00E94B1
S1131C50550E8110F5CF222009F442CEB60180E260
S1131C6090E00E94550E2A94F6CFF6018681978162
S1131C7002C08FEF9FEF2B96E2E10C940B0FFC0157
S1131C800590615070400110D8F7809590958E0FA3
S1131C909F1F0895FC016150704001900110D8F716
S1131CA0809590958E0F9F1F08950F931F93CF9348
S1131CB0DF93FB01238121FD03C08FEF9FEF2CC035
S1131CC022FF16C04681578124813581421753076C
S1131CD044F4A081B1819D012F5F3F4F3183208364
S1131CE08C93268137812F5F3F4F3783268314C01F
S1131CF08B01EC01FB010084F185E02D0995892B12
S1131D00E1F6D80116968D919C9117970196179636
S1131D109C938E931697CE01DF91CF911F910F91D3
S1131D200895FA01AA27283051F1203181F1E8946D
S1131D306F936E7F6E5F7F4F8F4F9F4FAF4FB1E0BA
S1131D403ED0B4E03CD0670F781F891F9A1FA11DB5
S1131D50680F791F8A1F911DA11D6A0F711D811DB6
S1131D60911DA11D20D009F468943F912AE0269F7B
S1131D7011243019305D3193DEF6CF010895462FDA
S1131D804770405D4193B3E00FD0C9F7F6CF462FBB
S1131D904F70405D4A3318F0495D31FD4052419324
S1131DA002D0A9F7EACFB4E0A695979587957795E1
S1131DB06795BA95C9F700976105710508959B0168
S1131DC0AC010A2E06945795479537952795BA95F1
S1131DD0C9F7620F731F841F951FA01D08952F92CA
S1131DE03F924F925F926F927F928F929F92AF92A7
S1131DF0BF92CF92DF92EF92FF920F931F93CF93F4
S1131E00DF93CDB7DEB7CA1BDB0B0FB6F894DEBF8A
S1131E100FBECDBF09942A88398848885F846E84B0
S1131E207D848C849B84AA84B984C884DF80EE80FA
S1131E30FD800C811B81AA81B981CE0FD11D0FB603
S1131E40F894DEBF0FBECDBFED010895F894FFCF27
S1131E500000000100000000000055000000000028
S1131E600002000000004900000000000000803F64
S1131E70706F7274622025640A00706C61796572F7
S1111E8020583A20256420593A2025640A008F
S9030000FC
