S010000075617274546573742E73726563B8
S11300000C942A000C9447000C9447000C9447006D
S11300100C9447000C9447000C9447000C94470040
S11300200C9447000C9447000C9447000C94470030
S11300300C9447000C9447000C9447000C94470020
S11300400C9447000C9447000C9447000C94470010
S11300500C94470011241FBECFE5D8E0DEBFCDBF0E
S113006010E0A0E6B0E0E8E5F1E002C005900D92F2
S1130070A039B107D9F720E0A0E9B0E001C01D9292
S1130080A639B207E1F70E946F000C94AA000C9401
S11300900000CF93C82F8A3019F48DE00E944900E4
S11300A05D9BFECFCCB9CF9108955F9BFECF8CB101
S11300B00895E0E9F0E08EE690E09383828380E6A1
S11300C090E09183808308950E94590010BC8CE0D5
S11300D089B9599886E880BD88E18AB908950E9453
S11300E064008CE790E00E947A0089E890E00E9426
S11300F07A00F7CF0F931F93CF93DF93E091920091
S1130100F0919300238121FF1BC08C01D0E0C0E05B
S1130110F80181918F016091920070919300DB014D
S11301201896ED91FC911997882331F00995892B44
S113013079F3DFEFCFEFECCF8AE00995892B19F043
S11301408FEF9FEF02C08D2F9C2FDF91CF911F91D6
S10B01500F910895F894FFCF0C
S1130158000000010000000000005500000000003D
S113016800020000000049000000000048656C6CB3
S11301786F20776F726C64210049742069730000E2
S9030000FC
